:020000040801F1
:1000000000400020750B01086D2101086F210108D7
:100010007121010873210108752101080000000009
:10002000000000000000000000000000772101082F
:100030000000000000000000792101087B21010878
:10004000BD0B010883210108BD0B0108BD0B010890
:10005000A5200108BD0B0108F5200108BD0B010812
:10006000BD0B0108BD0B0108BD0B0108BD0B01084C
:10007000BD0B0108BD0B0108BD0B0108BD0B01083C
:10008000BD0B0108BD0B0108BD0B0108BD0B01082C
:10009000BD0B01087F21010845210108BD0B0108A6
:1000A000BD0B0108BD0B0108BD0B0108A91C01080F
:1000B000BD0B0108BD0B0108BD0B0108BD0B0108FC
:1000C000BD0B0108BD0B01087D210108BD0B010816
:0400D000BD0B01085B
:1000D80010B5054C237833B9044B13B10448AFF37A
:1000E80000800123237010BD600400200000000080
:1000F800C473010808B5034B1BB103490348AFF3A8
:10010800008008BD0000000064040020C4730108DA
:1001180081F0004102E000BF83F0004330B54FEAB0
:1001280041044FEA430594EA050F08BF90EA020F1D
:100138001FBF54EA000C55EA020C7FEA645C7FEAB0
:10014800655C00F0E2804FEA5454D4EB5555B8BFD3
:100158006D420CDD2C4480EA020281EA030382EA44
:10016800000083EA010180EA020281EA0303362DD6
:1001780088BF30BD11F0004F4FEA01314FF4801CA9
:100188004CEA113102D0404261EB410113F0004FBB
:100198004FEA03334CEA133302D0524263EB430372
:1001A80094EA050F00F0A780A4F10104D5F1200E10
:1001B8000DDB02FA0EFC22FA05F2801841F100016B
:1001C80003FA0EF2801843FA05F359410EE0A5F13F
:1001D80020050EF1200E012A03FA0EFC28BF4CF070
:1001E800020C43FA05F3C01851EBE37101F0004526
:1001F80007D54FF0000EDCF1000C7EEB00006EEB33
:100208000101B1F5801F1BD3B1F5001F0CD34908BC
:100218005FEA30004FEA3C0C04F101044FEA445213
:1002280012F5800F80F09A80BCF1004F08BF5FEA9A
:10023800500C50F1000041EB045141EA050130BD7A
:100248005FEA4C0C404141EB0101013C28BFB1F58C
:10025800801FE9D291F0000F04BF01460020B1FAD7
:1002680081F308BF2033A3F10B03B3F120020CDAAA
:100278000C3208DD02F1140CC2F10C0201FA0CF088
:1002880021FA02F10CE002F11402D8BFC2F1200CED
:1002980001FA02F120FA0CFCDCBF41EA0C019040A3
:1002A800E41AA2BF01EB0451294330BD6FEA0404EC
:1002B8001F3C1CDA0C340EDC04F11404C4F12002D7
:1002C80020FA04F001FA02F340EA030021FA04F3E9
:1002D80045EA030130BDC4F10C04C4F1200220FA40
:1002E80002F001FA04F340EA0300294630BD21FA7E
:1002F80004F0294630BD94F0000F83F4801306BF44
:1003080081F480110134013D4EE77FEA645C18BF37
:100318007FEA655C29D094EA050F08BF90EA020FCE
:1003280005D054EA000C04BF1946104630BD91EAC6
:10033800030F1EBF0021002030BD5FEA545C05D1C9
:100348004000494128BF41F0004130BD14F5800408
:100358003CBF01F5801130BD01F0004545F0FE417C
:1003680041F470014FF0000030BD7FEA645C1ABFB1
:10037800194610467FEA655C1CBF0B46024650EAE8
:10038800013406BF52EA033591EA030F41F4002114
:1003980030BD00BF90F0000F04BF0021704730B59A
:1003A8004FF4806404F132044FF000054FF000016F
:1003B80050E700BF90F0000F04BF0021704730B530
:1003C8004FF4806404F1320410F0004548BF404205
:1003D8004FF000013EE700BF42004FEAE2014FEA5A
:1003E80031014FEA02701FBF12F07F4393F07F4F35
:1003F80081F06051704732F07F4208BF704793F038
:100408007F4F04BF41F40021704730B54FF460744A
:1004180001F0004521F000411CE700BF50EA01024D
:1004280008BF704730B54FF000050AE050EA0102F6
:1004380008BF704730B511F0004502D5404261EB66
:1004480041014FF4806404F132045FEA915C3FF4A7
:10045800D8AE4FF003025FEADC0C18BF03325FEA44
:10046800DC0C18BF033202EBDC02C2F1200300FAF5
:1004780003FC20FA02F001FA03FE40EA0E0021FA1A
:1004880002F11444BDE600BF70B54FF0FF0C4CF408
:10049800E06C1CEA11541DBF1CEA135594EA0C0FBA
:1004A80095EA0C0F00F0DEF82C4481EA030621EAF5
:1004B8004C5123EA4C5350EA013518BF52EA033530
:1004C80041F4801143F4801338D0A0FB02CE4FF0E2
:1004D8000005E1FB02E506F00042E0FB03E54FF012
:1004E8000006E1FB03569CF0000F18BF4EF0010E0A
:1004F800A4F1FF04B6F5007F64F5407404D25FEA06
:100508004E0E6D4146EB060642EAC62141EA5551B8
:100518004FEAC52040EA5E504FEACE2EB4F1FD0CFA
:1005280088BFBCF5E06F1ED8BEF1004F08BF5FEA78
:10053800500E50F1000041EB045170BD06F000462A
:1005480046EA010140EA020081EA0301B4EB5C04D7
:10055800C2BFD4EB0C0541EA045170BD41F48011CF
:100568004FF0000E013C00F3AB8014F1360FDEBFF4
:10057800002001F0004170BDC4F10004203C35DAD0
:100588000C341BDC04F11404C4F1200500FA05F353
:1005980020FA04F001FA05F240EA020001F00042F4
:1005A80021F0004110EBD37021FA04F642EB06016A
:1005B8005EEA430E08BF20EAD37070BDC4F10C0494
:1005C800C4F1200500FA04F320FA05F001FA04F258
:1005D80040EA020001F0004110EBD37041F1000144
:1005E8005EEA430E08BF20EAD37070BDC4F120054F
:1005F80000FA05F24EEA020E20FA04F301FA05F2B7
:1006080043EA020321FA04F001F0004121FA04F25E
:1006180020EA020000EBD3705EEA430E08BF20EA2E
:10062800D37070BD94F0000F0FD101F00046400068
:1006380041EB010111F4801F08BF013CF7D041EAEA
:10064800060195F0000F18BF704703F000465200EE
:1006580043EB030313F4801F08BF013DF7D043EABF
:100668000603704794EA0C0F0CEA135518BF95EA75
:100678000C0F0CD050EA410618BF52EA4306D1D1FC
:1006880081EA030101F000414FF0000070BD50EA1B
:10069800410606BF1046194652EA430619D094EAA5
:1006A8000C0F02D150EA013613D195EA0C0F05D18F
:1006B80052EA03361CBF104619460AD181EA0301E3
:1006C80001F0004141F0FE4141F470014FF000009B
:1006D80070BD41F0FE4141F4780170BD70B54FF036
:1006E800FF0C4CF4E06C1CEA11541DBF1CEA1355B6
:1006F80094EA0C0F95EA0C0F00F0A7F8A4EB050498
:1007080081EA030E52EA03354FEA013100F088808E
:100718004FEA03334FF0805545EA131343EA126357
:100728004FEA022245EA111545EA10654FEA00260C
:100738000EF000419D4208BF964244F1FD0404F5C5
:10074800407402D25B084FEA3202B61A65EB030521
:100758005B084FEA32024FF480104FF4002CB6EBDE
:10076800020E75EB030E22BFB61A754640EA0C005E
:100778005B084FEA3202B6EB020E75EB030E22BF9E
:10078800B61A754640EA5C005B084FEA3202B6EBDF
:10079800020E75EB030E22BFB61A754640EA9C009E
:1007A8005B084FEA3202B6EB020E75EB030E22BF6E
:1007B800B61A754640EADC0055EA060E18D04FEA2C
:1007C800051545EA16754FEA06164FEAC30343EACC
:1007D80052734FEAC2025FEA1C1CC0D111F4801F99
:1007E8000BD141EA00014FF000004FF0004CB6E792
:1007F80011F4801F04BF01430020B4F1FD0C88BF31
:10080800BCF5E06F3FF6AFAEB5EB030C04BFB6EB3B
:10081800020C5FEA500C50F1000041EB045170BD2E
:100828000EF0004E4EEA113114EB5C04C2BFD4EB5B
:100838000C0541EA045170BD41F480114FF0000EDF
:10084800013C90E645EA060E8DE60CEA135594EA5B
:100858000C0F08BF95EA0C0F3FF43BAF94EA0C0F5E
:100868000AD150EA01347FF434AF95EA0C0F7FF4D3
:1008780025AF104619462CE795EA0C0F06D152EA27
:1008880003353FF4FDAE1046194622E750EA41060B
:1008980018BF52EA43067FF4C5AE50EA41047FF41C
:1008A8000DAF52EA43057FF4EBAE12E74FF0FF3C81
:1008B80006E000BF4FF0010C02E000BF4FF0010C52
:1008C8004DF804CD4FEA410C7FEA6C5C4FEA430CCB
:1008D80018BF7FEA6C5C1BD001B050EA410C0CBF1A
:1008E80052EA430C91EA030F02BF90EA020F00207C
:1008F800704710F1000F91EA030F58BF994208BFE3
:1009080090422CBFD8176FEAE37040F0010070479F
:100918004FEA410C7FEA6C5C02D150EA013C07D1F6
:100928004FEA430C7FEA6C5CD6D152EA033CD3D041
:100938005DF8040B704700BF8446104662468C463B
:100948001946634600E000BF01B5FFF7B7FF00286E
:1009580048BF10F1000F01BD4DF808EDFFF7F4FF97
:100968000CBF012000205DF808FB00BF4DF808ED22
:10097800FFF7EAFF34BF012000205DF808FB00BF45
:100988004DF808EDFFF7E0FF94BF012000205DF867
:1009980008FB00BF4DF808EDFFF7CEFF94BF01201C
:1009A80000205DF808FB00BF4DF808EDFFF7C4FF15
:1009B80034BF012000205DF808FB00BF4A0011D2B7
:1009C80012F5001211D20DD56FF47873B3EB6252A1
:1009D8000ED44FEAC12343F0004343EA505323FAAD
:1009E80002F070474FF00000704750EA013002D122
:1009F8004FF0FF3070474FF000007047D0B50C4BF8
:100A0800002206460F46FFF73FFDFFF7D7FF0446D3
:100A1800FFF7C0FC074B0022FFF736FD02460B46E6
:100A280030463946FFF778FBFFF7C8FF2146D0BDAF
:100A38000000F03D0000F041844641EA000313F055
:100A480003036DD1403A41D351F8043B40F8043BCD
:100A580051F8043B40F8043B51F8043B40F8043B90
:100A680051F8043B40F8043B51F8043B40F8043B80
:100A780051F8043B40F8043B51F8043B40F8043B70
:100A880051F8043B40F8043B51F8043B40F8043B60
:100A980051F8043B40F8043B51F8043B40F8043B50
:100AA80051F8043B40F8043B51F8043B40F8043B40
:100AB80051F8043B40F8043B51F8043B40F8043B30
:100AC80051F8043B40F8043B403ABDD2303211D3D0
:100AD80051F8043B40F8043B51F8043B40F8043B10
:100AE80051F8043B40F8043B51F8043B40F8043B00
:100AF800103AEDD20C3205D351F8043B40F8043BD0
:100B0800043AF9D2043208D0D2071CBF11F8013BCD
:100B180000F8013B01D30B8803806046704700BF93
:100B2800082A13D38B078DD010F003038AD0C3F1A2
:100B38000403D21ADB071CBF11F8013B00F8013B84
:100B480080D331F8023B20F8023B7BE7043AD9D343
:100B5800013A11F8013B00F8013BF9D20B78037018
:100B68004B7843708B78837060467047002103E0B0
:100B78000B4B5B58435004310A480B4B42189A42BE
:100B8800F6D30A4A02E0002342F8043B084B9A4293
:100B9800F9D300F023F806F04BF901F0CFF8FEE79F
:100BA800947A0108000000205C0400206004002002
:100BB800E81A0020FEE70000064B0748E02283F809
:100BC8002220C0210023C2180133252B82F80013EC
:100BD800F9D1704700ED00E000E100E00F4A08B5E8
:100BE800D2F8883043F47003C2F888304FF080425E
:100BF800D36843F08003D36002F50032536923F4CD
:100C0800702343F48033536193689B07FCD5FFF747
:100C1800D3FFBDE8084000F039B800BF00ED00E0A0
:100C280003680A7A10B5446824F0700422434C7AA9
:100C380023F080030CB143F0800303604B684260EB
:100C4800C3620B68836210BD036801290CBF43F0BF
:100C5800040323F0040303607047036819B143F0E9
:100C680001030360704723F00103FAE7C368012911
:100C78000CBF43F0010323F00103C360704703690D
:100C880031EA03030CBF01200020704708B501209A
:100C980000F01EFA0C4B984214D90C4A0133B0FBF1
:100CA800F3F313700A4A4FF47A73B0FBF3F04FF082
:100CB800E0230138E021586182F8231000229A616C
:100CC80007221A6108BD00BF3F420F007C040020C4
:100CD80000ED00E030B50A4B4FF0E0211B784D697C
:100CE8005BB18C69584300238A699442FCD0234441
:100CF80098BF5B199B1A834200D330BD1446F3E7B3
:100D08007C0400204FF47A735843FFF7E3BF0000D8
:100D1800144B15499A68D20444BF4FF480529A6024
:100D2800124B134A99619A611A6802F4007242F0F0
:100D380022021A60002299619A614FF0FF32026024
:100D4800084A9168C90405D54FF4805393606FF041
:100D5800670070479A68D207FCD501229A60002084
:100D6800704700BF00F00040BFAE9D8C00000240FD
:100D7800161514132D4B2DE9F347154682189A4280
:100D880006460F464FD82A4B98424CD3294B2A4C3B
:100D98009A68D00444BF4FF480529A60274A284B7F
:100DA800A261A361236803F4007343F02403236062
:100DB8004FF00008A26125F0070905F00702C4F802
:100DC80018804D4538BF42464FF0FF3A49446846BF
:100DD800CDE900AAFFF730FE164A4346381D4FF00A
:100DE800010CAB4201D3002013E04B4535BFF95845
:100DF8000099E160E16034BFC1580199216143F86D
:100E080006A09168C90407D54FF4805393606FF02A
:100E1800670002B0BDE8F087A168C907FCD5C4F82F
:100E280008C00833DDE74FF0FF30F2E7FFFF0108A5
:100E38000080000800F0004000000240BFAE9D8C1A
:100E480016151413012310B58B40062A00F2828070
:100E5800DFE802F0040F1B293849630002681A43CF
:100E6800026082681A438260C26822EA0303C36090
:100E780038E002681A43026082681A438260C268D6
:100E88001A43C260026913430BE002681A43026006
:100E980082681A438260C2681A43C260026922EA01
:100EA800030303611EE0026822EA0302026082680B
:100EB80022EA03028260426822EA030242608269EF
:100EC80013430EE0026822EA03020260826822EA03
:100ED80003028260426822EA03024260826922EACF
:100EE8000303836110BD1F4CA0426FEA03020BD1BC
:100EF800072909D981691140816181680A408260A6
:100F080002681A430260BDE7016811400160816808
:100F18000A40826042681A43D0E7124CA0426FEA46
:100F280003020AD1072908D98169114081618168C2
:100F38001140816001680A40E4E7016811400160DE
:100F480081681140816041680B43436083691A409E
:100F58008261C7E702681A430260826822EA0302D4
:100F680081E700BF00FC014010B52B4C0123A042D3
:100F780003FA01F346D1072944D98169194219D1E5
:100F88008168194216D10168194213D001691942C2
:100F980010D072B9826922EA03028261826822EA69
:100FA80003028260026822EA0302026002691343B4
:100FB800036110BD18498869184219D18868184218
:100FC80016D10868184213D10869184210D0002AAF
:100FD800EFD08A6922EA03028A618A6822EA030258
:100FE8008A600A681A430A600A6913430B61E0E7DA
:100FF80009491AB10A6A13430B62DAE7CA6913434B
:10100800CB61D6E71AB1026A13430362D1E7C2691A
:101018001343C361CDE700BF00FC014042690123CF
:1010280003FA01F1114214BF184600207047C26A42
:101038004900032303FA01F11140C162704770B5FA
:101048000C461546FFF7F3FF836A610003228A40C6
:1010580023EA020305FA01F11943816270BDC26AED
:101068000323490003FA01F1114214BF01200020B3
:1010780070470000072910B511D90E4B083998425E
:101088000BBF01EB4101890007230F238B4002FAB4
:1010980001F1C26B22EA03031943C16310BD836BDC
:1010A80089000F248C4023EA040302FA01F1194352
:1010B8008163F3E700FC0140044AD36818B143F0A8
:1010C8008003D360704723F08003FAE70080004074
:1010D8004FF0804301461A6802F4E042B2F5A04F8F
:1010E80020D015D8B2F5805F1ED0B2F5005F1B483E
:1010F80008BF4FF4004002291BD0032923D001293F
:1011080005D14FF080431B68C3F30323D8407047D1
:10111800B2F5C04F0BD0114B1148B2F5E04F18BFD4
:101128001846E8E70F48E6E74FF4FA40E3E70E48C9
:10113800E1E74FF080421368C3F30323D8401368F4
:10114800C3F34213E2E74FF080421368C3F303236B
:10115800D8401368C3F3C233D8E700BF00366E0126
:10116800006CDC020048E80180EE36004FF0804356
:10117800986800F4C03070474FF08043986800F4D6
:10118800C04070474FF08043986800F4C0507047E3
:101198004FF08043986800F4C06070474FF0804378
:1011A800586800F00200704741284AD8DFE810F07C
:1011B80011020702FD01E401D201B90171016701C1
:1011C8005D01530149013F0135010D010301D600BD
:1011D800EA00E000CC004900C200B800AE00A3005D
:1011E80099008F0085006B00610057004D00420098
:1011F800170121012B014900490049004900490014
:10120800490049004900490049004900490049008E
:101218002E0225021B0238029501490049004900A7
:10122800490049004900490049004900490049006E
:1012380042024C024FF08043DA6819B142F480123E
:10124800DA60704722F48012FAE74FF08043DA68D8
:1012580011B142F40022F3E722F40022F0E74FF044
:101268008043DA6811B142F48022E9E722F480224F
:10127800E6E74FF08043DA6811B142F40032DFE765
:1012880022F40032DCE74FF08043DA6879B142F4A7
:101298008032DA604FF080439A6A02F03F023F2AB8
:1012A800FAD15A6931B142F004025A61704722F406
:1012B8008032EEE722F00402F7E74FF08043DA6865
:1012C80011B142F40042BBE722F40042B8E74FF004
:1012D8008043DA6811B142F48042B1E722F48042D7
:1012E800AEE74FF08043DA6811B142F40052A7E745
:1012F80022F40052A4E74FF080431A6919B142F072
:1013080020021A61704722F02002FAE74FF080436A
:10131800DA6811B142F4805292E722F480528FE7E2
:101328004FF08043DA6811B142F4006288E722F492
:10133800006285E74FF08043DA6811B142F48062B9
:101348007EE722F480627BE74FF08043DA6811B1D0
:1013580042F4807274E722F4807271E74FF08043A0
:10136800DA6811B142F020026AE722F0200267E74A
:101378004FF08043DA6811B142F0800260E722F052
:1013880080025DE74FF08043DA6871B142F04002B5
:10139800DA604FF080439A6A02F03F023F2AFAD19E
:1013A8005A6929B142F008027FE722F04002EFE7CC
:1013B80022F0080279E74FF08043DA6811B142F071
:1013C80010023DE722F010023AE74FF08043DA6856
:1013D80011B142F0007233E722F0007230E74FF0AB
:1013E8008043DA6811B142F0807229E722F08072F6
:1013F80026E74FF08043DA6811B142F400021FE794
:1014080022F400021CE74FF08043DA6811B142F47D
:10141800800215E722F4800212E74FF08043DA6871
:1014280011B142F008020BE722F0080208E74FF07A
:101438008043DA6811B142F0040201E722F00402A5
:10144800FEE64FF08043DA6811B142F00202F7E697
:1014580022F00202F4E64FF08043DA6811B142F05C
:101468000102EDE622F00102EAE64FF08043DA6875
:1014780011B142F00062E3E622F00062E0E64FF0CC
:101488008043DA6811B142F08062D9E622F08062C6
:10149800D6E64FF080431A6979B142F400721A61B6
:1014A8009A6A02F03F023F2AFAD15A6942F01002C2
:1014B8005A611A6942F0100223E722F010021A61F9
:1014C8009A6A02F03F023F2AFAD15A6922F01002C2
:1014D8005A611A6922F4007213E74FF080431A69BF
:1014E80079B142F480521A619A6A02F03F023F2AA7
:1014F800FAD15A6942F020025A611A6942F400622C
:10150800FFE622F400621A619A6A02F03F023F2A5B
:10151800FAD15A6922F020025A611A6922F48052DB
:10152800EFE64FF080431A6971B142F008021A6180
:101538004FF080439A6A02F03F023F2AFAD15A6973
:1015480029B142F00102B0E622F00802EFE722F0EA
:101558000102AAE64FF080431A6931B142F0040251
:101568001A611A6942F04002CBE622F004021A61BD
:101578001A6922F04002C4E64FF080431A6971B13B
:1015880042F002021A614FF080439A6A02F03F0269
:101598003F2AFAD15A6929B142F0020285E622F0BF
:1015A8000202EFE722F002027FE64FF08043DA689A
:1015B80011B142F0805243E622F0805240E64FF0EB
:1015C80080431A6911B142F001029AE622F0010241
:1015D80097E64FF080431A6911B142F0800290E615
:1015E80022F080028DE64FF080431A6911B142F46F
:1015F800807286E622F4807283E64FF08043DA68D0
:1016080009B11A431CE622F0804219E64FF08043E4
:10161800DA6811B142F0005212E622F000520FE6E9
:101628004FF080431A6911B142F4806269E622F4EE
:10163800806266E64FF08043DA6811B142F4001226
:10164800FEE522F40012FBE54FF08043DA6811B1A1
:1016580042F00042F4E522F00042F1E510B50C46F4
:1016680005280ED8DFE800F003151F28345F374A35
:101678003749936934B123F0200393618B685B0782
:10168800FCD510BD43F0200393618B685C07FCD444
:10169800F7E72E4A936819B123F400439360F0E703
:1016A80043F40043FAE7294A936811B123F4C0438D
:1016B800F4E743F4C043F1E7244A936923F018039D
:1016C80019B143F008039361DBE743F01003FAE72D
:1016D80001210E20FFF768FD1E4BD3F80421CCB181
:1016E80090060BD4D3F8042142F02002C3F8042159
:1016F800D3F8042122F08002C3F80421154BD3F853
:10170800042142F00402C3F80421D3F80821910708
:10171800FBD5B6E722F00402C3F80421D3F8082168
:101728009207FBD4ADE7094A0949936934B123F01C
:10173800400393618B68002BFCDAA2E743F0400377
:1017480093618B68002BFCDB9BE700BF00800040A7
:101758000082004000900040034940F6FF53CA6AE7
:1017680033EA0202FBD1704700E0004008B5FFF7FA
:10177800F3FF054B1A6818B142F080721A6008BD71
:1017880022F08072FAE700BF00E00040012808B5A7
:101798000AD8FFF7E1FF054B1A6801280CBF42F091
:1017A800007222F000721A6008BD00BF00E000401D
:1017B800F8B5054600285ED0314B5F6BB9B25E6C58
:1017C8005A6CB242FBD19C6C9A6CA242FBD15A6B08
:1017D80092B29142F1D10029EFD0FFF7DFFCBFB2FE
:1017E80007EE907AB8EEE77AF6EE007A002843D151
:1017F800DFED246AC6F3021306F00F0203EB83033E
:1018080002EB4303EB71C6F3C223C6F3C31203EB27
:10181800830302EB4303AB71C6F3814303EB8303FA
:10182800C6F3833606EB4306C4F3011304F00F0234
:1018380003EB830302EB43032B71C4F38023C4F34C
:10184800831203EB830302EB4303E7EE267AEB7084
:10185800C4F3C223AB70C4F3834303EB8303C4F321
:101868008334FCEEE77A04EB430404F5FA64C5ED2F
:10187800027A6E712C80F8BDDFED036ABAE700BF0B
:1018880000E000400024F4410000FA41402810B56F
:101898000C4608D0431EDBB21F2B09D8054A22FA92
:1018A80003F3DB0704D5FFF757FF0CB9024BD861E8
:1018B80010BD00BF8B80008000E00040402808B5C4
:1018C80008D0431EDBB21F2B0ED8084A22FA03F3B6
:1018D800DB0709D5FFF740FF054BDB6930EA030357
:1018E8000CBF0120002008BD0020FCE78B80008091
:1018F80000E0004080280AD0402808D0431EDBB210
:101908001F2B0DD8074A22FA03F3DB0708D5012954
:1019180006D8054B9A6A0CBF104322EA0000986269
:10192800704700BF8B80008000E0004008B518B108
:10193800FFF712FF014B986108BD00BF00E00040AF
:10194800BFF34F8F0449054BCA6802F4E0621343A2
:10195800CB60BFF34F8FFEE700ED00E00400FA050F
:1019680030B1054BDA6A02601B6B43600020704798
:101978004FF0FF30704700BF000002408A880368BC
:1019880030B5541EA4B24FF6FD75AC4214D923F0FD
:1019980070030AB943F010038A8923F44073134390
:1019A8008A7B23F080030AB143F0800303608B68CD
:1019B800C3620B68836230BD23F060031343EBE717
:1019C800036819B143F001030360704723F0010372
:1019D800FAE7F0B545680E7A4C68036AAAB923F0AD
:1019E80001030362036A87690A7827F073073A4399
:1019F80023F00A0336B143F0010344638261456072
:101A08000362F0BD43F00303F7E7012A12D123F084
:101A180010030362036A87690A8827F4E6473A4392
:101A280023F0A0031EB143F010038463E6E743F0FC
:101A38003003FAE7022A13D123F480730362036A9E
:101A4800C7690A7827F073073A4323F4206326B15D
:101A580043F48073C463C261D1E743F44073F9E788
:101A680023F480530362036AC7690A8827F4E647A8
:101A78003A4323F420431EB143F480530464EAE755
:101A880043F44053FAE713F0FD0F38B515460CD16F
:101A98000A7802F0EF02602A0ED11A46FFF799FF82
:101AA8002946BDE83840FFF769BF0C8824F4805404
:101AB800A4B2B4F5C04FEFE738BD83690B4214BF39
:101AC800012000207047836B1AB923EA0101816362
:101AD80070471943FBE74FF4E133036060238380C9
:101AE8004FF0407200238371826003737047036B69
:101AF80019B143F001030363704723F00103FAE7C8
:101B0800036C0B4214BF01200020704741647047EA
:101B180038B5036B23F001030363C36A23F0100392
:101B2800C36200238363464B984204460D463ED168
:101B3800FFF71CFBC00B0138022850D8414B53F863
:101B480020002B68B0EB031F4FEA031175D36BB16C
:101B5800B0FBF1F201FB1200C000B0FBF3F000F0A3
:101B6800010303EB500080B240EA02431A0C03F071
:101B78003F036262A362E36A2A7923F06003134396
:101B8800E362E36AAA7923F008031343E3622B7B39
:101B98008BB3E36A43F01003E3626B79012B2ED019
:101BA800022B42D09BBBE36A23F002032EE0B0F184
:101BB800402F04D1FFF7E0FAC0F34F30BBE7224BC8
:101BC800984204D1FFF7DEFAC0F3CF20B3E71F4BEA
:101BD80098420ED1FFF7DCFAC0F34F20ABE7184B61
:101BE8009C4202D0B4F1402F03D10220FFF770FAD3
:101BF800A7E70320FAE7E36A23F01003CCE7E36AD8
:101C080043F00203E362E36A23F00403E362236B15
:101C18006A8923F4407313432363236B2A8923F4CB
:101C2800404313432363002038BDE36A43F00203B3
:101C3800E362E36A43F00403E8E74FF0FF30F3E7B9
:101C480000300040E073010800000140001001402E
:101C5800084B094AC3F8002C032218609A60074A07
:101C6800C3F8002C4FF08042536A43F010035362CC
:101C7800704700BF00E0014051E5CC1AAE1A33E5C9
:101C8800044B054AC3F8002C0122DA60034AC3F862
:101C9800002C704700E0014051E5CC1AAE1A33E53C
:101CA80008B50B480121FEF7EAFF80B1094B1A6815
:101CB80001321A601A7952B15A790132D2B2042A21
:101CC8005A7104D900221A715A7101229A7108BDF9
:101CD80000C0004080040020014B1868704700BF16
:101CE8008004002070B5012204460D461148124EAA
:101CF8000321FFF739F92544AC4211D10E4C80215C
:101D08002046FFF7DAFE0028F9D040F21A40FEF725
:101D1800E1FFBDE87040074800220321FFF724B91E
:101D280005482021FFF7C9FE0128F9D014F8013B26
:101D38003360E1E700F00140003000402DE9F04356
:101D4800012185B01120FFF72FFA01210220FFF7AA
:101D580085FC01211F20FFF727FA01210820FFF742
:101D680023FA01210720FFF71FFA01210C20FFF7B2
:101D78001BFA01210B20FFF717FA01210D20FFF7AD
:101D880013FA01212020FFF70FFA01212120FFF784
:101D98000BFA01212220FFF707FA01214120FFF762
:101DA80003FA01210020FFF7FFF901210E20FFF7B8
:101DB800FBF96420FEF7A6FF01210420FFF7F4F9E0
:101DC8000220FFF785F9A74D42F2107304244FF45F
:101DD800FA68B0FBF8F05843FFF73AFF2C6001208F
:101DE800FFF76AF901211F20FFF7DEF901221146EA
:101DF8009D48FFF73FF9012200219B48FFF73AF978
:101E08006846FFF768FE4FF41653694697480093F3
:101E1800FFF77EFE954801221021FFF754FE0122AC
:101E280092484021FFF74FFE90480121FFF75FFEDF
:101E3800402640F2E73217232E608D4885F8066366
:101E48006946CDE900234FF48873ADF80830FEF7F2
:101E5800E7FE87480121FEF7F7FE85480121FEF7D6
:101E680005FF01218248FEF7F8FE4FF080474FF04A
:101E780000632B6085F81B63BB6923F48043BB6157
:101E88006420FEF73FFFBB697A4843F48043BB6197
:101E980022460E21FEF7D6FF22467648764F0F21BE
:101EA800FEF7D0FF224675480E21FEF7CBFF2246EB
:101EB80072480C21FEF7C6FF224670480A21FEF739
:101EC800C1FF224621466B48FEF7BCFF22466948FF
:101ED8000921FEF7B7FF224669480F21FEF7B2FF36
:101EE800224667480D21FEF7ADFF224664480C21C3
:101EF800FEF7A8FF22465F480321FEF7A3FF012251
:101F080011465F48FEF79EFF5D4802220121FFF758
:101F180096F822465A485B4C0521FEF793FF0521A7
:101F280000225748FFF720F84FF480032B60404603
:101F380085F81663FEF7E6FE03F0F8FA03F0CAFB2D
:101F4800F888DFF854810A23B0FBF3F203FB120090
:101F580080B264235843FEF7D5FE4648062208217E
:101F6800FFF788F8434806220B21FFF783F805217D
:101F780040480622FFF77EF80025602304F58471A7
:101F8800C4F80851C4F80C6184F808313E4E8D60DD
:101F98004FF6FF73A4F8183140F201434FF00109DE
:101FA800C4F81C3104F58A722B46304684F8109127
:101FB800C4F81451A4F8205184F82251FFF763FDA6
:101FC80004F58A72A2F10C0102233046FFF75BFD8B
:101FD80004F58A72A2F10C012B464046FFF753FD27
:101FE80049463046FFF7ECFC49464046FFF7E8FC17
:101FF8004FF480637363C8F83430F36302F014FA63
:1020080004F09EFB03F01CF904F0DEFA00F008F976
:10201800FFF736FE1D4B1B784B4512D1BB7A022BBE
:1020280009D11B4B1B6833B94FF69C73FB8202F036
:1020380049FD03F083FC00F039FA002005B0BDE843
:10204800F083134B1B68002BF5D1124B03211A8820
:102058009B78ADF8002068468DF80230FFF742FE05
:10206800E9E700BF00E100E000F401400030004073
:1020780000C0004000F00140980A002000FC014028
:1020880000F801408004002000A00140780A0020E8
:10209800B4110020707A010800A0004010B5114C5E
:1020A80010212046FFF72CFD80B110212046FFF7B4
:1020B8002DFD0D4B216893F80721501C1A4483F815
:1020C8000701D17101221A7100225A710548402175
:1020D800FFF716FD28B1BDE8104002484021FFF780
:1020E80015BD10BD001001408004002010B5114C32
:1020F80010212046FFF704FD80B110212046FFF78C
:1021080005FD0D4B216893F80721501C1A4483F8EC
:102118000701D17101221A7100225A710548402124
:10212800FFF7EEFC28B1BDE8104002484021FFF758
:10213800EDBC10BD003000408004002010B50748F9
:102148000121FEF78CFF0128044606D10146034809
:10215800FEF76DFF024BA3F8244110BD00F80140C3
:10216800800400207047FEE7FEE7FEE7FEE77047C1
:1021780070477047704701F02BBF00F053BC000058
:10218800034B04221A70034B00205B6B184700BFF7
:10219800A805002004780108034B05221A70034B98
:1021A80000205B6B184700BFA805002004780108D1
:1021B800034B02221A70034B00205B6B184700BFC9
:1021C800A805002004780108034B03221A70034B6A
:1021D80000205B6B184700BFA805002004780108A1
:1021E8002DE9F0411F460B4B0B4CDB6A0E4680462F
:1021F80015469847324641462046FEF71DFC074AD9
:1022080024F8045C0123557097701370A4F80861D2
:10221800BDE8F08104780108B00A0020A805002074
:102228002DE9F04F574C584E8DB0201DFFF798FB05
:10223800564BE360564B6361564B2361564BA36183
:10224800564BE36104F10C0033689847544AF3682D
:102258001468544AD6E90689002C3ED0117A5248AF
:10226800524ADFF854A100FB01209847504B002444
:1022780093F82870012540F6B833CDE90743CDE936
:102288000544CDE903454FF0080BCDF808B09AF89E
:1022980005300193032F9AF80430009328BF27468E
:1022A8003B46224615212846C847CDE90845CDE9D1
:1022B8000644CDE90445CDE90244CDE9004B9AF83E
:1022C80005309AF8042039462846C047736B0B93AB
:1022D80000200DB0BDE8F04F184792F827522DB3F3
:1022E80034489847012540F6B8334FF0020A4FF0BA
:1022F800080B0727CDE90743224623461521CDE9D8
:102308000544CDE90345CDE901AB00972846C84708
:10231800CDE90845CDE90644CDE90445CDE90244B7
:10232800CDE9004B53463A462146CDE7117A1E487F
:102338001E4A214C00FB01209847012740F6B8337C
:10234800CDE90753CDE90555CDE903574FF0080A04
:10235800CDF808A06379019323790093E3782A469E
:1023680015213846C847CDE90857CDE90655CDE9C6
:102378000457CDE90255CDE9005A384663792279E8
:10238800E178A2E7A805002004780108892101085E
:10239800E9210108A1210108B9210108D121010879
:1023A800B4110020980A0020400D03000026221CCA
:1023B80000F0000880A1031C780A002038B50A4DF7
:1023C8000A4C2B6E98472278012AD3B205D0023BDB
:1023D800032B01D80023237038BD02F03BFC6B6B44
:1023E80000209847F6E700BF04780108A8050020F8
:1023F80073B5104C104E65252378042B0CD0237828
:10240800052B09D0336E98470520FEF77BFC013D6C
:10241800F2D1A36A0133A362A36A0A2B82BF074BD6
:1024280001221A70736B0193002002B0BDE870405E
:10243800184700BFA805002004780108A41100204F
:10244800134B1B6813B50BBB124B1B78F3B9124A1D
:102458001249082312F8014B11F8010B844215D1D7
:10246800013B13F0FF03F5D101240D488DF800401E
:10247800FEF74EFC082269460948FEF77BFC09482E
:1024880008226946FEF776FC074B1C7002B010BDA7
:10249800B4110020780A002087040020EC7301089A
:1024A80000F0000808F00008A41100206E4C6F4EE0
:1024B8002DE9884800236E4F2380238123822383BC
:1024C800238823B1452B15D00023238018E03378C7
:1024D800012B01D1FFF772FF3B8833B16548012119
:1024E800FEF79CFD98B100233B80FFF7F5FB4523E1
:1024F80060602380FFF7F0FB6368C01A0428E6D801
:102508002389DBB1692B3AD0002323813EE03B8845
:1025180001339BB2B3F5167F3B80E6D901233370B4
:102528004FF6FF7373813381FF23F38102F0CCFDF3
:102538006420FEF7E7FBFFF703FAD6E73378012BB1
:1025480001D102F043FC4C4A137892F80A21134354
:1025580008D14A4A52F8041B487B897B884224D018
:1025680003F014FA464B1B78012B01D1FFF7E8F969
:10257800FFF786FBFFF7B0FB6923E0602381FFF7D5
:10258800ABFBE368C01AB0F57A7FD7D2238A1BB3B6
:10259800922B1BD000232382238B002B7AD0B32BC2
:1025A80000F0E280002323838AE70133DBB2072BA4
:1025B800D0D1D7E7092B04D92E4801220521FEF7EF
:1025C800D3FCFFF789FB922360612382FFF784FB2A
:1025D8006369C01A0928DFD9236A2A4D01332362A7
:1025E80003F0B8FC2B78022B0DD1A38C01339BB2DE
:1025F800C82BA38407D9244840F2CA21FFF772FBED
:102608000023A3842B70236A0A22B3FBF2F102FB96
:1026180011331BB933780BB103F05AFD1B4B1B6800
:102628000BB904F035F8236A4FF47A72B3FBF2F170
:1026380002FB1133022B01D102F08EFE144A256AE7
:10264800927AA36A022AA5EB030308D1C72BB1D952
:10265800084800220521FEF787FCA562B1E73B2B5D
:10266800F6D81D2BA7E700BFD4050020780A002064
:10267800A405002000F80140F011002024130020D8
:10268800A4110020B0110020F4730108B411002037
:10269800980A0020654DFFF7D3FE95F8031103292A
:1026A8002AD9E81C01F04AFD30BBEA78502A23D128
:1026B80033786BB14FF6FF73738133815C4B3070A5
:1026C800A3F80621E822A3F80A21F08102F0FCFC15
:1026D800DFF8748195F80321564988F8962040461A
:1026E800FEF7AAF901F0F6FC96220021404604F014
:1026F800C3FB002388F8963033784BB34E4B1B68E6
:1027080033BB95F8031119B30323B1FBF3F303EBC0
:102718004303CB1A13F0FF0358D1EA78FF2A55D1A7
:102728006A79FE2A52D1454A117821B14FF47A705C
:102738001370FEF7E7FADFF8F4804FF0000A03227F
:1027480095F80331B3FBF2F35FFA8AF2934211D89A
:1027580038484FF48072002104F08EFB002385F87E
:102768000331AB70B3232383304B9B78002B3FF4AA
:10277800A7AE8FE798F80330FF2BE9D198F805301A
:10278800FE2BE5D1DFF8C4B04FF007095BF8042B46
:1027980098F80400117B88420ED1516802220988FA
:1027A80003F064FC5BF8042C107B282804D15168E2
:1027B8000222098803F05AFC09F1FF3919F0FF09D0
:1027C800E4D10AF1010A08F10308B8E7032919D985
:1027D800184801F0B3FCA8B9194BEA7899789142E6
:1027E80010D15A782B799A420CD195F803111148D7
:1027F80003F066FA0028ABD195F803110D4802F0F2
:10280800AFF9A5E795F80311012902D1EB78002B60
:102818009ED00C4B1A7822B1EA78A92A04BF02226A
:102828001A70044803F05CF892E700BF84040020A3
:102838006009002087040020B41100200000002057
:10284800F0110020B0110020A80700202413002058
:1028580070B5052886B038BF052003AC054620466C
:10286800FEF7A6FF94E807001A4C6B4683E80700BA
:1028780084E807000020FEF779FFFEF78FFC0228A6
:10288800284614BF4FF400464FF4FA46FDF782FD80
:10289800044630460D46FDF77DFD02460B462046B0
:1028A8002946FDF7F1FD0C4B0022FDF717FF04F058
:1028B8003BFDFEF7A3F8FFF739F80120FEF766FFA6
:1028C8000120FEF753FF0121102006B0BDE870403B
:1028D800FFF710B80406002000408F40014BD3E9F1
:1028E80004017047000600202DE9F04F87B003A8C7
:1028F800FEF75EFFBDF80C40059A9DF80FC09DF8E5
:1029080010509DF811309DF812709DF813E0DFF813
:10291800DC80DFF8DC900192002631463246A4F5CF
:10292800FA6A30B250451FFA86FB15DB14F003042F
:102938000CF1FF3C51D02B4EDFF8AC800024E0B204
:10294800604504F101041FDA3044007B08FB00F005
:10295800411842F10002F2E710B11BF0030F05D154
:1029680011EB080142F100020136DAE711EB090127
:10297800F8E7305C08FB00F0411842F10002E0B2D1
:10298800604504F10104F4DB4FF461603C24A7FBCB
:102998000474A3FB0003C01943EB040310EB0E0EF1
:1029A80005F1FF30104D05FB00F043F100031EEB6D
:1029B800000043F10003401842EB03024FF47A731E
:1029C800A0FB030103FB0211019AB2FBF3F3C01849
:1029D80041F1000107B0BDE8F08F024EDFF8088032
:1029E800CDE700BFBE760108805101000085E201F5
:1029F8008033E10138B5FFF777FF034B04460D46F6
:102A0800C3E9044538BD00BF0006002008B5FFF73C
:102A18006BFF034AD2E90432C01A61EB020108BD18
:102A28000006002008B51020FEF748FF90B10020EE
:102A3800FEF79CFE00211020FEF75CFF002110200D
:102A4800FEF724FF00F0B6F9BDE808400121102088
:102A5800FEF750BF08BD72B6704762B670470000F7
:102A6800044B9860DA6802F01102012AFAD19868DA
:102A7800C0B270470090004010B5134C4FF400737B
:102A8800C4F800310723236002232361D4F80431FA
:102A9800802B0BD01420FEF71DF90023C4F80C314D
:102AA8001420FEF717F90123C4F80C31064B074828
:102AB80002225A60064B4FF400121A60BDE810401B
:102AC80003220B21FEF7D6BA0090004000FC01401B
:102AD80000E100E00520704710B5134CD4F804312C
:102AE80023F02003C4F804316420FEF7F3F8D4F887
:102AF800043143F02003C4F80431D4F8043123F03E
:102B08008003C4F80431D4F8003143F02003C4F83A
:102B18000031D4F8043143F00103C4F80431D4F887
:102B28000831DB05FBD410BD0090004008B50A2031
:102B3800FEF7D0F8024AD2F80831DB05FBD408BD0D
:102B48000090004038B572B6094C0025C4F80C5105
:102B58001420FEF7BFF8C020FFF782FF2846FFF7D2
:102B68007FFF0123C4F80C31FFF7E0FF62B638BDE0
:102B780000900040F8B50F4F154606460C4600F089
:102B88005FF90023C7F80C313046FFF769FF254489
:102B9800AC4208D10123842EC7F80C3108D0BDE817
:102BA800F840FFF7C3BF14F8010BFFF759FFEFE731
:102BB800F8BD00BF0090004073B5104E0190154657
:102BC8000C4600F03DF900210198C6F80C11FFF7FA
:102BD80047FF0846FFF744FF2544AC4207D10123CD
:102BE800C6F80C3102B0BDE87040FFF79FBF002067
:102BF800FFF736FF04F8010BEFE700BF0090004035
:102C0800F8B5104F154606460C4600F019F9002392
:102C1800C7F80C310D20FFF723FF300AFFF720FF1C
:102C2800F0B2FFF71DFF2544AC4206D10123C7F8D7
:102C38000C31BDE8F840FFF779BF14F8010BFFF736
:102C48000FFFF1E70090004007B501228DF807104B
:102C58000DF10701FFF7D4FF03B05DF804FB000096
:102C6800F8B5124F154606460C4600F0E9F8002163
:102C7800C7F80C111D20FFF7F3FE300AFFF7F0FE2E
:102C8800F0B2FFF7EDFE0846FFF7EAFE2544AC4236
:102C980006D10123C7F80C31BDE8F840FFF746BF5D
:102CA8000020FFF7DDFE04F8010BF0E7009000407C
:102CB80007B501220DF10701FFF7D2FF9DF80700C4
:102CC80003B05DF804FB0000F8B50F4F1546064643
:102CD8000C4600F0B5F80023C7F80C310E20FFF7BA
:102CE800BFFE3046FFF7BCFE2544AC4206D10123A7
:102CF800C7F80C31BDE8F840FFF718BF14F8010B0E
:102D0800FFF7AEFEF1E700BF00900040F8B5114FA5
:102D1800154606460C4600F093F80021C7F80C113A
:102D28001E20FFF79DFE3046FFF79AFE0846FFF784
:102D380097FE2544AC4206D10123C7F80C31BDE803
:102D4800F840FFF7F3BE0020FFF78AFE04F8010BF6
:102D5800F0E700BF00900040022100F081BA022095
:102D680070470000024803220A21FEF76BB800BF33
:102D780000F00140024804220A21FEF763B800BFB0
:102D880000F00140FDF7BEBF10B5FFF7A7FD0446F0
:102D9800FFF730FE064B1B68011B241A03B910BD50
:102DA8001A688A428CBF121900221A605B69F5E71B
:102DB8002006002070B51B4CFFF7E6FF236843B1DF
:102DC8005A69226000221A72DA6802B9FEE71869A5
:102DD8009047002523683BB9FFF7D6FF2368B3B9AE
:102DE80070BD18699047F5E71E68FFF70FFE864229
:102DF80075EB010303D323681B68002BECD1236810
:102E08005A692260DA681D72002AEAD1FEE75A7A06
:102E1800002AE5D10122BDE8704018685A72FFF710
:102E280017BD00BF20060020014B1878704700BF6F
:102E380034060020014B1870704700BF340600208C
:102E480008B5074B1A7812B11B78062B03D1FFF788
:102E580079FEFFF787FFBDE80840FFF767BE00BFB0
:102E6800340600200A4601460020FFF72DBF08B5AA
:102E7800014608224FF4D860FFF7C2FE002008BDC3
:102E880007B5030A8DF80430064B8DF805005B780A
:102E98002BB9022201A940F2BC60FFF7B1FE03B0D2
:102EA8005DF804FB3406002007B5030A8DF80430EA
:102EB800064B8DF805005B782BB9022201A940F278
:102EC800BE60FFF79DFE03B05DF804FB34060020EA
:102ED80010B50C4B5B7804469BB94FF4D760FFF7ED
:102EE800E7FEC4F3002100F0FE0001434FF4D76071
:102EF800FFF7AAFEE1B240F2B960BDE81040FFF763
:102F0800A3BE10BD3406002007B58DF80400FFF7F6
:102F180031FF012201A98420FFF72CFE024B002279
:102F28001A7003B05DF804FB3406002007B50122CF
:102F38008DF807000DF107018020FFF71BFE9DF8B3
:102F48000720044B22B901221A7003B05DF804FB74
:102F58000222F9E73406002007B5094B8DF8060070
:102F680004221A70030C8DF804300322030A01A905
:102F780083208DF80530FFF7FDFD03B05DF804FBF5
:102F88003406002010B51446FFF76CFF2046BDE854
:102F98001040FFF7E1BF000007B5094B8DF80600A8
:102FA80005221A70030C8DF804300322030A01A9C4
:102FB80082208DF80530FFF7DDFD03B05DF804FBD6
:102FC8003406002013B50C4B04460522962140F622
:102FD800AC001A70FFF738FE230C8DF8043003227A
:102FE800230A01A982208DF805308DF80640FFF7E5
:102FF800C1FD02B010BD00BF3406002007B5030CA8
:103008008DF80030030A8DF801300B0C8DF80200A2
:103018008DF803308DF805100B0A062269469420B6
:103028008DF80430FFF7A6FD024B06221A7003B094
:103038005DF804FB34060020002208B51146C520BF
:10304800FFF798FD014B07221A7008BD34060020CF
:1030580000221146D120FFF78DBD07B501228DF85A
:1030680007000DF107019F20FFF784FD03B05DF80D
:1030780004FB07B501228DF807000DF10701A02018
:10308800FFF778FD03B05DF804FB07B501228DF862
:1030980007000DF107019620FFF76CFD03B05DF8FE
:1030A80004FB0000184B984207B50DD9E1238DF8B1
:1030B8000430E9238DF80530022201A99820FFF792
:1030C80059FD03B05DF804FB104B984204D9D7238F
:1030D8008DF80430D823EDE70D4B984204D9C1236D
:1030E8008DF80430C523E5E70A4B984204D97523C7
:1030F8008DF804308123DDE7074B9842DCD96B2338
:103108008DF804306F23D5E700E9A43580F8A9329B
:103118008044E52D000B6B1B40FC541907B58DF856
:10312800062004228DF804008DF8051095200DEB7B
:1031380002018DF80730FFF71DFD03B05DF804FBB1
:1031480013B5040A8DF801008DF80310080A8DF8EC
:103158000520110A1A0A8DF8062008228DF80200A7
:103168008DF80410104669468DF800408DF8073038
:10317800FFF700FD02B010BD07B5022201A9122019
:10318800FFF71AFDBDF8040040BA80B203B05DF83D
:1031980004FB07B501228DF807000DF107019D20FA
:1031A800FFF7E8FC03B05DF804FB000008B5FFF783
:1031B80063FCFFF791FCFFF7C5FC0020FFF7B6FEA4
:1031C8000120FFF7E6FF024B01221A7008BD00BF7D
:1031D800340600200000000037B5154DAB780446D2
:1031E8001BB9FFF75FFF0123AB702046FDF7D2F84C
:1031F8000DA3D3E90023FDF771FAFDF7DFFB030EFA
:103208008DF804300422030C8DF805308DF8070082
:10321800030A0DEB020186208DF80630FFF7AAFCA1
:1032280003B030BDAFF30080000000008084EE3FA3
:103238003406002007B5064B8DF8070058700122A8
:103248000DF107018A20FFF795FC03B05DF804FB38
:1032580034060020014B5878704700BF3406002020
:1032680037B5044600200D46FFF779FD01280346CF
:1032780020D10F2C02464FF000010CBF062004207D
:10328800FFF74CFF6FF002008442B8BF04460E2CD3
:10329800A8BF0E24182140F6E700FFF7D5FC02224C
:1032A80001A98E208DF804408DF80550FFF762FCC7
:1032B80003B030BD40F6D800FFF7FAFC40F01E001E
:1032C800C1B240F6D800FFF7BFFC134B18780228AC
:1032D80018D0032806D0012818D10346002205215A
:1032E800032003E00221012300220846FFF716FF0E
:1032F8006FF002008442B8BF0446162CA8BF1624FB
:103308003821C8E7012300220321EFE70123002227
:1033180007210420EAE700BF1D0600200000000086
:1033280013B52F4A0446516810686B4603C32D4BEA
:1033380020785B78834201D0FFF77CFF23781BB1AC
:10334800012B37D002B010BD6068FDF723F80246A4
:103358000B461FA1D1E90001FDF7C0F90022224B5D
:10336800FDF792F8FDF72AFB030C8DF80030030AED
:103378008DF80130237B8DF802008DF80330A068AA
:10338800637B8DF80430FDF705F813A3D3E9002318
:10339800FDF7A4F9FDF712FB030C8DF80530030ABD
:1033A8008DF806308DF80700082269468B20FFF754
:1033B800E1FBC7E7237C8DF80030637C8DF8013092
:1033C800A37C8DF80230E37C8DF803300422ECE70F
:1033D8000000000080847E41000000008084EE3FF1
:1033E800D676010834060020000040401FB5304A58
:1033F8000446D1689068127C01AB03C31A702D4B48
:1034080020785B78834201D0FFF714FF23781BB143
:10341800012B39D004B010BD637AF12B28D14FF6B7
:10342800FF70FFF72DFD48F20500FFF73DFD022371
:1034380062888DF80520110A22798DF806206279B4
:103448008DF80720A2798DF80820E2798DF80920F7
:103458008DF80B30227AA37A8DF80A208DF80410A3
:103468008DF80C30092201A98C20FFF783FBD1E7E6
:10347800F22BDDD141F60F50FFF702FD41F221009A
:10348800FFF712FD0623D3E7A3898DF805301A0A42
:10349800A37B8DF80630E37B8DF80730237C8DF80D
:1034A8000830637C8DF804208DF809300622DAE7AD
:1034B800D67601083406002013B5049C8DF8033035
:1034C800230C8DF800008DF801108DF802208DF87E
:1034D80004300522230A694688208DF805308DF8C6
:1034E8000640FFF747FB024B07221A7002B010BDD7
:1034F8003406002007B502228DF804008DF8051067
:103508008F2001A9FFF736FB03B05DF804FB07B570
:10351800012201A91520FFF74FFB9DF80400404246
:10352800401003B05DF804FB37B504460D4602228F
:1035380001A91320FFF740FB0C4B5B78012B11D13D
:1035480040F20470FFF7B4FBC0F3C710012809D19B
:1035580040F20270FFF7ACFB20709DF805302B702D
:1035680003B030BD9DF804302370F6E73406002020
:10357800F7B50D46064600240DF107012846174603
:103588008DF80740FFF7D0FF2A78BA4207D89DF890
:1035980007003146FFF7BAFB204603B0F0BD012013
:1035A800FBE7000013B50322044601A91420FFF726
:1035B80003FB1B494A7822704AB1012A17D014220A
:1035C8000021204603F058FC0F2323700DE09DF8DE
:1035D800043023719DF80530A2605B425B10A37133
:1035E8009DF806305B425B10637102B010BD9DF818
:1035F80004309DF905205B425B1023739DF805306C
:10360800002AB6BFA3F580739B089B1063739DF8CF
:1036180006305B425B10A3734B682361E5E700BF8C
:103628003406002007B50222030A8DF8050001A917
:1036380010468DF80430FFF79DFA03B05DF804FBDF
:1036480000207047012070470020FFF76FBC000082
:1036580010B50D4C2060FFF7A9FD0020FFF766FCB0
:103668000120FFF712FD00210846FFF743FF042160
:103678000020FFF7F5FD002318461A461946FFF704
:103688005FFD0020207110BD3C06002008B5FFF743
:10369800CBFBC31EDBB2022B9ABFC0F10600C0B23F
:1036A800002008BDFFF798BD08B5FFF730FF00B24E
:1036B80008BDFFF7FDBAFFF7C7BA000038B50C46DA
:1036C800002340F201211A4605460846FFF738FD57
:1036D800FFF7C0FD074B012807480CBFDC751C74B9
:1036E800FFF784FE214628460022BDE83840FFF750
:1036F80049BC00BF3C0600204406002008B5002352
:1037080018461A461946FFF71BFD4FF00400FFF74D
:10371800FBFBBDE808400220FFF734BBFFF76EBC97
:1037280037B5144B93F840500F2805F10D05EDB24D
:103738001AD807281AD803281AD8012894BF0024B1
:10374800012400234FF4C0711A460846FFF7F8FC1D
:10375800002300930A2229462046FFF7ADFE03B056
:10376800BDE83040FFF768BC0424EAE70324E8E733
:103778000224E6E73C06002010B50C46FFF72CFDB6
:103788002046FFF7E9FABDE81040FFF761BCFFF7F4
:1037980037BAFFF765BA08B5FFF79CF9033008BDDB
:1037A80010B590B10A4B012219461C68A04206D3F5
:1037B8009C68A04203D201EBC202107910BD01320D
:1037C800162A03F10803F0D1FEE71F20F6E700BF31
:1037D800E876010808B540F2422100231A46084657
:1037E800FFF7AEFC064B93F844202AB16FF07F40F8
:1037F800BDE80840FFF7D0BB986C8001F8E700BF30
:103808003C0600200128084805D1084BC1751970ED
:103818000830FFF7EBBDC37B012B03D1034B0174C9
:103828001970F5E7704700BF3C0600200100002032
:1038380008B5022100231A460846FFF781FC064B0B
:1038480093F844202AB16FF07F40BDE80840FFF7A5
:10385800B9BB986C8001F8E73C06002037B54D4CA1
:103868002379002B00F09380FFF7F5F800232371EC
:10387800FFF7F3F8B4F84C30D90707D50120FFF764
:10388800D9FA236813B11B6803B19847B4F84C30D0
:103898009A072FD594F8445095B90120FFF7CAFA32
:1038A800294640F60210FFF7CFF940F64410FFF71B
:1038B800FFF940F00200C1B240F64410FFF7C4F926
:1038C800FF220DF107013448FFF752FE3348FFF796
:1038D80069FE236873B19D6865B1B4F84C305B0626
:1038E80008D494F95D3194F95C219DF807102A48B1
:1038F8001A44A847B4F84C3058060AD594F844300E
:1039080013B90120FFF796FA236813B11B6903B1B5
:103918009847B4F84C3019060BD50120FFF78AFAFE
:10392800236833B19B6923B1B4F84C00C0F300207D
:103938009847B4F84C309A050BD5FFF775FA042868
:1039480019D10120FFF776FA236813B15B6803B138
:103958009847B4F84C309B0619D594F8443013B9FD
:103968000120FFF767FA23688BB1DB687BB103B0EE
:10397800BDE830401847FFF757FA0528E9D101207C
:10398800FFF758FA2368002BE3D0DB68DFE703B0C2
:1039980030BD00BF3C0600208A0600208C070020AE
:1039A8000E4B10B5044683F8640183F8650100F0F6
:1039B80017F85CB134214FF4E860FFF745F944216A
:1039C800BDE8104040F24170FFF73EB914214FF4B2
:1039D800E860FFF739F92421F2E700BF3C06002030
:1039E80008B50120FFF726FC064B93F8640193F80D
:1039F8006521824205D083F86501BDE80840FFF7DC
:103A0800CFBF08BD3C060020012808B507D000201C
:103A1800FFF710FC044B002283F8652108BDBDE8C0
:103A28000840FFF7DDBF00BF3C06002037B5FFF7B1
:103A3800D7FF0020FFF7B0FA002425460120FFF742
:103A4800A1F9FFF764FD00F00103A3400134202C25
:103A580045EA0305F2D100F0CBFA28440190FFF7BC
:103A68004DFE019803B030BD0A2838B50DD8084B73
:103A780003EBC000D0E92C4501208840FCF79AFCF4
:103A880022462B46FCF72AFE38BD00240025F3E722
:103A9800E8760108000000002DE9F04F85B00E46D9
:103AA8009DF84C1000919DF85C109DF84470BDF88D
:103AB8004090754CDFF8ECA1BDF83C8084F84410C8
:103AC800002918BF4FF00009002F15469DF848201F
:103AD80008BFFF228AF80020834620B1012867D05A
:103AE80005B0BDE8F08FFFF7B8FA0B23304684F82D
:103AF8003C3084F830B06563FFF752FE41F60403AA
:103B0800A3819AF800302374009B84F83D00002BB1
:103B180014BFF223012387F0010763744FEAC80832
:103B28000123A374E77384F808B0A4F80A8084F822
:103B38000EB0FFF789FD94F83000003818BF012057
:103B4800FFF762FF04F13000FFF7EAFB04F1080019
:103B5800FFF74CFC4D4AD2F80801D2F80C1102AB21
:103B680003C302A8FFF783F940F2FF10FFF7B0F98B
:103B78002846FCF70FFC02460B4600204449FCF798
:103B8800ADFD444B0022FCF77FFC064648460F4635
:103B9800FCF710FC02460B4630463946FCF774FC2D
:103BA8003D4B0022FCF770FCFCF708FFA06497E788
:103BB80000200193FFF751FA5FFA89F0FFF759FAED
:103BC800324A019B84F830B032445FFA85F992F8A2
:103BD800100184F8409084F8410084F842308EBB8C
:103BE8000B3D012D32D80123A9F10509994584F827
:103BF80043B0237238D8B8F10B0F35D80C23A38201
:103C08009AF80030E375009B23769DF85830637668
:103C1800A775FFF7E5FE2148FFF782FB2048FFF76D
:103C2800E5FB637E012B40F2367020D1FFF740F8A8
:103C380000F0FB0140F23670FFF706F84FF6FF730D
:103C4800A3644DE7012E01D10C2DCCD04946FFF7D6
:103C58000BFF0BA3D3E90023FCF79CFEB0F1000B8C
:103C680018BF4FF0010BBEE7A4F81480C8E7FFF7B0
:103C78001FF840F00400C1B2DCE700BFAFF30080DA
:103C8800000000A0476130403C060020E8760108AB
:103C98000000F03F0000204000408F406C060020EC
:103CA80044060020010000202DE9F74F0C9EBDF8C6
:103CB80038709DF83C909DF840B05B4C8A46904621
:103CC800054648B1012847D040F68900FEF7F0FFC5
:103CD80040F00400C1B284E00B2284F8300018469A
:103CE80084F83C206663FFF75BFD41F60403BBF1F3
:103CF800000FA38114BFF22301236374FF00012383
:103D080089F00109A37484F83D00C4F8388025724D
:103D18006781A57384F80F90FFF796FC94F830003C
:103D2800003818BF0120FFF76FFE04F13000FFF7DD
:103D3800F7FA04F10800FFF759FB3C4AD2F80801EA
:103D4800D2F80C116B4603C36846FFF790F840F2AF
:103D5800FF10FFF7BDF8B7E7344A9DF8341084F830
:103D680030001A445FFA86F892F8100184F840800F
:103D780084F8410084F84210002B3FD10B3E012EFD
:103D880040D80123A8F10508984584F843502372C8
:103D980044D80B2F42D80C23A382254B84F81690C5
:103DA8001B78E3759DF84C30637684F818B0FFF7FC
:103DB8004BFC94F83000003818BF0120FFF724FEB0
:103DC8001C48FFF7ADFA1C48FFF710FB94F8413088
:103DD800062B7FF479AF40F68900FEF769FF00F003
:103DE800FB0140F68900FEF72FFF5046FEF7B4FFAF
:103DF800149BC4F8683103B0BDE8F08F012B01D1E2
:103E08000C2EBED04146FFF72FFE05A3D3E90023B1
:103E1800FCF7C0FD051E18BF0125B2E7A782BCE765
:103E2800000000A0476130403C060020E876010809
:103E3800010000206C06002044060020000000005D
:103E48002DE9F74F884628B101283DD0002003B05E
:103E5800BDE8F08F5A4A9FED5B6A517B538903EBAB
:103E6800D10307EE903AD37BF8EEE77A002B07EE02
:103E7800108AF7EE006A08BFF0EE466A77EEA67A77
:103E8800B8EEC77A537C77EE877A022BB0EE007AC9
:103E980018BFB0EE467A77EE877AB2EE007A67EE10
:103EA800877A92ED0D7AB8EE477AC7EE876ADFED2A
:103EB800467A66EEA77A17EE900AFCF78DFA03F0B9
:103EC80097F9FCF77BFDC2E7DFF8F4A09AF840B059
:103ED8009AF841005946FFF7C7FDBAF8143007EEC3
:103EE800903AF8EEE77AB1EE017A77EE877A0446EF
:103EF8000D4617EE900AFCF76FFA22462B46FCF7A0
:103F0800C3FA9AF816300646CBEB48089AF8180018
:103F1800012B08F1070808EB80080CBF14200020CB
:103F2800C0EB88000F46FCF745FA9AF84330002B9F
:103F3800804614BF02200020ABEB000080008946B9
:103F4800FCF738FA02460B4640464946FCF7C6FBE2
:103F580003F056F802469AF8420000F003000B46B8
:103F68000430CDE90023FCF725FADDE90023FCF74E
:103F78008BFA0022002380468946FCF715FD18B904
:103F88004FF000084FF00009104B00224046494608
:103F9800FCF7C4F822462B46FCF776FA32463B4635
:103FA800FCF7BCF804A3D3E90023FCF7B7F803F047
:103FB800A3F886E7AFF30080000000E0CEF7EF3FFC
:103FC8003C0600200000000000007A440000204069
:103FD80010B5064C01232371FFF7CEF8A4F84C0066
:103FE800BDE810404FF6FF70FFF71CBB3C060020F1
:103FF800074B08491A6843F2390001FB02001860B0
:104008006FF00043B0FBF3F3C3EBC373C01A704700
:10401800040000206D4EC641034A1278012A01D1DE
:1040280000F09EBDFDF75EBE780A002038B5054653
:104038000C4600F083F8621CD2B2030AA11C285572
:10404800C9B2AB542846BDE83840FFF7E5BF0000C9
:104058000E4B88B17B2283F898205A7883F89A000F
:1040680062F07F0283F89920032283F82E2193F8C7
:104078002E110748FFF7DABF1A4652F8981BC3F803
:104088009810998891800622EFE700BFA8070020C2
:10409800400800200E4B5B78013B0F2B15D8DFE85A
:1040A80003F008140A140C0E141414141414141421
:1040B800101200F059B800F031B900F0CDB800F096
:1040C8006DB900F0F3B800F087B90120FFF7C0BF61
:1040D800A807002070B5144C94F89610032915D938
:1040E800204600F02BF888B923787B2B17D00F4A8D
:1040F8001278012A11D10E4D94F896202E7836B9EF
:104108001146204602F002F985F80B6170BD214680
:104118000848BDE8704002F06DBA502BF6D1BDE8F2
:104128007040FFF7B7BF00BFA8070020780A00203B
:10413800F011002078140020FDF7D4BD30B5FF241D
:10414800084D01442246814202D142EA042030BD92
:1041580010F8013B5340EA5C2B44624093F800415D
:10416800F1E700BF707801082DE9F047364CA6B09A
:1041780000259222294601A8009502F07DFE2379A8
:10418800667906EB0326B6B2731E212B05D90320E8
:1041980026B0BDE8F047FFF75BBFA37894F803901B
:1041A8002A4A09EB032993881FFA89F94B4505D850
:1041B800D28809EB0603013B934201DD0220E7E7C1
:1041C800F71D4FEAE708FF0814BF424601222946B7
:1041D800684602F051FE19FA85F080B21FFA85FA96
:1041E80000F0E6F968B101282CD126AB03EBDA031D
:1041F8000AF0070A13F8982C00FA0AF0104303F89B
:10420800980C0135ABB29E42E5D8237884F89830F3
:104218000F4D637884F8993084F89A806B460422AD
:1042280013F8010B05F8010BD1B20132101F80B24F
:104238008742F5D8074884F82E1126B0BDE8F04724
:10424800FFF7F4BE0420A3E7A80700200800002019
:10425800430800204008002008B5124B1A79597904
:1042680001EB022189B239B1B1F57F4F04D00320A7
:10427800BDE80840FFF7ECBE9A78D8780A4B00EB07
:1042880002209A8880B2824209D8DB88834206D30A
:1042980000F0C6F901288CBF04200020E8E70220BE
:1042A800E6E700BFA80700200800002008B5184B63
:1042B8001A79597901EB022189B24A1E212A04D9B7
:1042C8000320BDE80840FFF7C3BE4807C1F3C70293
:1042D80018BF0132987918BFD2B29042F0D19A78BB
:1042E800D87800EB02200B4A938880B2834204D826
:1042F800D2884318013B934201DD0220E1E7064AD8
:1043080000F06AF901288CBF04200020D9E700BF1B
:10431800A807002008000020AF07002038B51D4C72
:10432800A288608852BA92B2531E40BA8B2B80B2D0
:1043380004D90320BDE83840FFF78ABE16498B88A8
:10434800834204D8C9888318013B8B4201DD0220CF
:10435800F0E7237884F89830D2B2637884F89930FB
:1043680055000323EDB204F19B0184F82E3184F843
:104378009A5000F06BF908B90420DBE794F82E1185
:104388002944C9B284F82E1104F19800BDE83840D8
:10439800FFF74CBEA80700201400002008B50C4900
:1043A8000C4B48889A8840BA80B2824202D8DB888F
:1043B800834204D20220BDE80840FFF749BE01222B
:1043C800043100F071F908B90420F4E70020F2E79D
:1043D800A80700201400002010B511498A884888D1
:1043E80052BA92B2531E40BA8B2B80B204D9032022
:1043F800BDE81040FFF72CBE0A4CA388834204D8BE
:10440800E4888318013BA34201DD0220F0E7D2B221
:10441800073100F049F908B90420E9E70020E7E787
:10442800A80700201400002070B55B495B4C5C4B6A
:104438006360084642F210720B46002642F2167577
:104448000280013292B2AA42468000F10400F7D1FC
:1044580042F27472002542F290700A83013292B2DD
:1044680082424D8301F10401F7D14E4A22614E4A3E
:104478004CF25031104600254CF263340180013172
:1044880089B2A142458000F10400F7D110464CF2F0
:10449800A85100254CF2B854A0F84C10013189B24B
:1044A800A142A0F84E5000F10400F5D100218CB2D1
:1044B800A4F56750013134381E29A2F88C00A2F8FF
:1044C8008E4002F10402F2D14EF27862A3F88C21F8
:1044D8004EF27962A3F890210022A3F89621A3F85E
:1044E8009A21A3F89E214FF47842A3F8D6201F22E0
:1044F800A3F8DA204FF4FC62A3F8DE2048F2100299
:10450800A3F8E2204FF6E072A3F8E620A3F8EA2029
:104518001022A3F8EE204FF47C42A3F8F2204BF6C9
:10452800BA22A3F8F6204FF61842A3F8FA204FF65D
:104538001002A3F8FE2042F20412A3F802214FF45D
:104548008062A3F806214FF40042A3F80A2144F23E
:104558001042A3F80E214FF6FF72A3F81221134A56
:1045680012784EF27A61012A0CBF7B225022A3F8FE
:1045780094114EF27B61A3F8981108BFA3F88E211D
:104588004EF27C610EBF6622A3F88E21E822A3F8C2
:104598009C11A3F8922170BDD808002008000020C3
:1045A80010278F2750C37CE660090020780A002076
:1045B800084A002332F82310814205D102EB830315
:1045C800588800F0010070470133222BF2D11846B9
:1045D800704700BFD808002030B5104C002334F8CD
:1045E8002350854208D104EB830402340025ABB282
:1045F800994206D8012003E00133222BEFD1184657
:1046080030BDD80803F00703105C40FA03F303F049
:10461800010324F825300135E9E700BFD808002058
:1046280010B5094A002332F82340844207D19B0081
:1046380001201A4409B1508010BD5180FCE70133B4
:10464800222BF0D11846F7E7D8080020154BF0B513
:1046580003EB82051618043D0024013E33F824704C
:10466800874219D135F82470B74215D103EB84037A
:1046780000204D1CC4B2A24203F1040301D801205A
:10468800F0BD33F8024C240A01F8104033F8024C0C
:1046980005F810400130EDE70134462CDED100204A
:1046A800EEE700BF60090020154BF0B503EB82056B
:1046B8001618043D0024013E33F8247087421AD1AD
:1046C80035F82470B74216D103EB84034D1C00243F
:1046D800E0B2824203F1040301D80120F0BD11F8D1
:1046E8001400000223F8020C15F81460304323F874
:1046F800020C0134ECE70134462CDDD10020EDE753
:10470800600900202DE9F0473E4D2B7888B0002B3A
:1047180072D03D4FB5F91420B7F90C309A426BDBD3
:1047280005F1220000F066FFFF2805F1220809D0F4
:10473800364B00B2C0EBC0001C22002103EB800006
:1047480002F09AFB00F032FFFF28064654D0DFF84B
:10475800BC9000B21C24C0EBC00022464FEA800A7D
:10476800002109EB800002F087FB04FB069201237D
:1047780053710AF1060A95F817311371B5F81A4101
:10478800D5F8223054800AEB09014AF80930D8F8E4
:1047980004304B60AB8A53826B881C44A4B24FF63A
:1047A800FC78204600F012FFFF2828D1631E9BB238
:1047B800434524D8230A8DF80C302B7A8DF80E3017
:1047C8001C20FB788DF80F3046433B798DF810306C
:1047D8007B798DF8113029F8064009EB06088DF829
:1047E8000D4000F0C1FF01230093B8F80200062332
:1047F80003AA022100F0D4F908B0BDE8F08701341B
:10480800A4B2CEE7980A0020780A0020780D00208C
:1048180037B5154C2378ABB1B4F81A0100F0D6FEC1
:10482800FF28124A10D01C2303FB00235B79022BBC
:104838000AD1012300930023B4F81A011A4604216F
:1048480000F0AEF903B030BD1C2303FB0022A38A9D
:1048580053820025022353719573956100F08CFCF7
:10486800012300932B46E7E7980A0020780D0020E3
:1048780073B5124B1A78F2B1B3F81A01104D00F063
:10488800A5FE1C26044601237043009300231A4604
:10489800285A142100F084F920B2C0EBC000324637
:1048A800002105EB800002F0E7FA204602B0BDE8DF
:1048B800704000F0A7BC02B070BD00BF980A00208D
:1048C800780D0020704700001FB50E4890F8223080
:1048D800012B12D1B0F9142090F9151000938DF81E
:1048E8000C108DF80D20B0F81A01022303AA8121BB
:1048F80000F056F905B05DF804FB05B05DF804EB6F
:10490800FDF71EB8980A00207047000013B51D4A2D
:104918001378E3B9B2F81A01C8B992F8211003293B
:1049280017D192F8224092F8233003EB04239380A6
:10493800B2F81831538092F824301372012393721D
:1049480082F8241200930B32082300F029F902B0F0
:1049580010BD0629FBD192F8221092F8233003EB00
:1049680001239380B2F81831538092F824301372DF
:10497800054B92F82510D970D18C99800123937238
:104988000321DDE7980A0020780A002008B5114BBA
:104998001A78F2B983F8242202210F4A9972197AF7
:1049A800517099885B8813814FF40073D3815181CA
:1049B80000F08AFB6420FCF7A5F9BFF34F8F074985
:1049C800074BCA6802F4E0621343CB60BFF34F8F12
:1049D800FEE708BD980A0020780A002000ED00E0F4
:1049E8000400FA0508B50A48017879B94FF40A7243
:1049F80002F042FA074B4FF6FF725A811A81FF22E2
:104A0800DA8100F061FB044B01221A7008BD00BF77
:104A1800980A0020780A0020A411002008B5104B3D
:104A28001A78DAB993F8220093F823100D4A01EBAB
:104A38000021518193F8240093F8251001EB0021FF
:104A4800118193F82610517093F827101B8D9380CD
:104A5800D17000F039FB044B01221A7008BD00BF69
:104A6800980A0020780A0020A41100201FB5094BDD
:104A78000020B3F9142093F915308DF80C308DF817
:104A88000D200090022303AA172100F089F805B031
:104A98005DF804FB980A002007B5094A107860B948
:104AA80040F20133A2F8243282F8260290720823D9
:104AB80000900B32012100F073F803B05DF804FB9D
:104AC800980A00201FB5134B1878F8B99A7A022A69
:104AD8001CD17B228DF8082066228DF809200E4A09
:104AE8009269526852898DF80B20110AB3F9162081
:104AF80093F917308DF80A108DF80C308DF80D20C9
:104B08000090062302AA202100F04AF805B05DF8BB
:104B180004FB00BF980A00202413002038B50D4C70
:104B28000D4D204695F8212084F8962005F12201A4
:104B3800FBF782FFFFF7CEFA084BB5F81A21A3F866
:104B48000C2100219622204602F096F9002384F8D1
:104B5800963038BDA8070020980A0020F0110020E0
:104B680007B50B460246002104480091B0F80C0135
:104B7800612100F015F803B05DF804FBF011002086
:104B8800BFF34F8F0449054BCA6802F4E062134330
:104B9800CB60BFF34F8FFEE700ED00E00400FA059D
:104BA800F8B52A4C9DF818601D467B2384F82231FD
:104BB800638884F824311F0A237884F82371012B31
:104BC8002AD1002384F8253184F82631030A84F891
:104BD800273184F8280146B394F81F3184F8293125
:104BE80084F82A1184F82B510021CBB29D4224D895
:104BF80005F10A06F6B23146154800F019FD2644BB
:104C080005F10B0186F82201C9B284F82112104877
:104C1800BDE8F84000F0C6BDA37A23B9E3881F0AAF
:104C280084F82571D0E7A388F9E794F8283284F846
:104C38002931013384F82832D2E70A3354FA83F34E
:104C4800505C83F822010131CFE700BF980A0020A9
:104C5800BA0B002013B55C4C00F0F4FCB4F820113A
:104C68000139C9B204F1180000F0E2FCB4F82031AF
:104C78002344DB7D83422BD1B4F81A014FF6FE732F
:104C8800984204D0B4F81C21A3889A4220D1B4F8E1
:104C980018116288914205D04FF6FE73994201D0EF
:104CA8009A4215D12378ABB194F81E31012B02D169
:104CB80094F8273273B900F089FCFF280AD1012340
:104CC80000930023B4F81A011A461121FFF768FF70
:104CD80002B010BD94F81E31202B4AD012D8013BE7
:104CE800DAB2152A17D8152B15D8DFE803F02429CE
:104CF8002E33141414141414141414141414471400
:104D08004C14383D532B4FD00AD8422B56D0512B38
:104D180045D0402B4DD002B0BDE8104000F0E6BCB5
:104D2800612B35D0802B38D0602BF4D102B0BDE890
:104D38001040FFF7F3BE02B0BDE81040FFF7E2BC39
:104D480002B0BDE81040FFF7E1BD02B0BDE8104079
:104D5800FFF75EBD02B0BDE81040FFF717BE02B016
:104D6800BDE81040FFF75ABE02B0BDE81040FFF79B
:104D78007DBE02B0BDE81040FFF7A4BD02B0BDE89B
:104D88001040FFF72FBE02B0BDE81040FFF770BD1E
:104D980002B0BDE81040FFF7B7BDFFF795FD02B0C0
:104DA800BDE8104000F010BD02B0BDE8104000F0B2
:104DB80065BD02B0BDE8104000F09EBD02B0BDE880
:104DC800104000F0BBBD00BF980A002037B5594C11
:104DD8002378012B00F0AC8094F82422A37A1343A3
:104DE80004D194F827320BB1FFF756FE94F8250248
:104DF80078B3013894F82452C0B284F8250245B338
:104E080038BB94F826320133DBB2032B84F8263200
:104E180031D9012D06D0032D11D084F8240284F84D
:104E2800260216E084F8260200200823424A009051
:104E38000121FFF7B5FE032384F8253209E0E38852
:104E4800A3804FF6FE73A07284F8240284F8260229
:104E5800638094F82732013BDBB2FD2B18D884F825
:104E68002732ABB9354A937300F02EF96420FBF76B
:104E780049FFFFF785FE012DD6D0032DE9D12E4A33
:104E8800009008232946FFF78BFE84F82552E0E7B7
:104E98002B4A94F829129269A388527B0131C9B22E
:104EA80084F82912AAB1A27A022A12D1254A1068D6
:104EB80078B91E25B3FBF5F205FB12321D3292B20A
:104EC8008A4206D284F8290203B0BDE8304000F0D7
:104ED800B3BD1D4964200A78B3FBF0F500FB153318
:104EE80001320344D2B29BB29A420A700BDDA27A15
:104EF800022A08D1134A12682AB90A7003B0BDE819
:104F08003040FFF7DFBD94F82A220132D2B2934233
:104F180084F82A220CDAA37A022B09D1094B1B68E0
:104F280033B984F82A3203B0BDE8304000F02EBD12
:104F380003B030BD980A0020A30A0020780A002098
:104F480024130020B411002020000020F8B55A4D89
:104F580000F098FB00232B801846B3F5FA7F99B22E
:104F680039D119464B1E9BB22B8003F1807303F590
:104F7800D053DB00514A187800F00F0010711878F0
:104F8800C0F30110D0701878800950715C78002641
:104F980004F07F0454709671987810F00F0018BFD1
:104FA80001201070DF78187940EA072050815F7976
:104FB800987940EA072010819878C0F34110D0739F
:104FC800DB799373642C29805ED8D378022B84BF55
:104FD8000223D3701DE0DA0002F1006202F55042AC
:104FE80001331268013201D00120B6E700B12980EF
:104FF8000029B7D1314B01221A800222DA70072228
:105008001A712F4A1981D2885A814FF6D872D973EA
:105018009A812A4B1A799879073A052A84BF072278
:105028001A715A79013A012A84BF01225A71DA7B2E
:10503800022A84BF0022DA730128214A26D10021DE
:1050480059811989013989B24FF6FD74A14201D9F4
:10505800D1881981D97B022927D1597811725989A8
:10506800918019895180D97B9B7B82F82732134B19
:1050780091721070134A03F1100153F8040B42F8AF
:10508800040B8B42F9D1F8BD56709EE75989013956
:1050980089B24FF6FD74A14284BFD1885981D97B6A
:1050A8000029D7D14FF6FE7119811978012904BF5B
:1050B800FF21D981D1E700BFF8100020780A00202D
:1050C800980A0020880A002013B5284B284CDA7863
:1050D80019799879120101F00F0102F030020A43A0
:1050E800597902EB81128DF800205A78197802F06C
:1050F8007F0202EBC0128DF80120DA7B520101F029
:105108000F0102F060020A4301288DF8022012BF45
:105118005A89B3F90C2093F90D108DF8042018BFA3
:10512800110A1A899B7B8DF8073023888DF80310A4
:10513800B3F5FA7F4FEA12218DF805108DF8062095
:1051480004D300230B482380FBF7E2FD208800F1FD
:10515800807000F5D05008226946C000FBF70AFEAF
:1051680023880133238002B010BD00BF780A0020D5
:10517800F810002000D00008F0B51F4C6388B3F584
:10518800FA7F85B0054604D300231C486380FBF7EB
:10519800BFFDFF231A4A8DF80B3006211C2313FB91
:1051A80005118F18885879686B436E4603C6D11865
:1051B800D35A8DF809301A0A8B6960888DF808204F
:1051C8001A0E8DF80C2000F180701A0C8DF80D2045
:1051D80000F5E0501A0A8DF80E2069461022C0002A
:1051E8008DF80F308DF80A50FBF7C4FD6388023341
:1051F800638005B0F0BD00BFF810002000E0000893
:10520800780D00201FB5044610220021684601F0E1
:1052180033FE8DF80A40094C608800F1807000F573
:10522800E050FF2310226946C0008DF80B30FBF7D1
:10523800A1FD63880233638004B010BDF81000201C
:10524800F0B53E493E4C00234B80012504F1180679
:105258004A88B2F5FA7F27D33A4A3948002330F80A
:10526800231022F8021B0133222BF8D1364A374883
:10527800002330F8231022F8021B0133132BF8D136
:10528800334B34490022B3F88E4090B21E2C88BFAD
:10529800A3F88E000132B3F88E0021F8020B1E2A03
:1052A80003F10403EFD1F0BD02F1807303F5E0537D
:1052B800DB0018680130CFD0187801281FD10022F0
:1052C800587805FA02F73840104124F822000132D4
:1052D800062AF5D10022C2F3CC071F4402F0070CBE
:1052E800B87805FA0CF7384040FA0CF026F8220096
:1052F80001321C2AEFD14B8801334B80A8E70228E2
:105308000DD1134F981C283330F802CBA7F802C0F0
:10531800984207F10407F7D104324A80EBE70328E3
:10532800E9D10B4F981C3E3330F802CBA7F88EC05A
:10533800984207F10407F7D10732EEE7F81000208A
:10534800DA080020FC10002040110020620900202B
:1053580060090020661100202DE9F0476A4C638837
:10536800B3F5F87F90B014D300214422201D61804A
:1053780001F082FD2622002104F1480001F07CFDA5
:105388003C22002104F16E0001F076FD5F48FBF736
:10539800BFFC5F4D5F4E2A46002332F8021B36F8E9
:1053A800230088427ED10133222BF6D15A4FDFF8F1
:1053B80070813A46002332F8021B38F823008842ED
:1053C8004ED10133132BF6D1DFF85891DFF858A1ED
:1053D8004A46002332F8021B3AF8230088421DD1BE
:1053E80001331E2BF6D1002336F8232025F8022B93
:1053F8000133222BF8D1002338F8232027F8022B79
:105408000133132BF8D100233AF8232029F8022B73
:1054180001331E2BF8D110B0BDE8F08740220021DF
:10542800684601F029FD03238DF800306A46002301
:105438003AF8231091700133090A1E2BD17002F13A
:105448000202F5D1608800F1807000F5E05040223A
:105458006946C000FBF78EFC638808336380C2E7A7
:1054680028220021684601F007FD02238DF800304C
:105478006A46002338F8231091700133090A132B68
:10548800D17002F10202F5D1608800F1807000F558
:10549800E05028226946C000FBF76CFC638805339E
:1054A800638091E700230122CDE900338DF80020C5
:1054B8001A4636F82310994001330A43062BD2B214
:1054C800F7D1164F8DF801200023C3F3C4024232EE
:1054D80037F823106A4403F00700814012F8400CA3
:1054E800013301431C2B02F8401CEED1608800F107
:1054F800807000F5E05008226946C000FBF73AFCCE
:1055080063880133638051E7F810002000E0000849
:10551800FC100020DA08002040110020F2080020CA
:105528006209002066110020EE09002013B51B480F
:10553800037E012B08D0FBF7EBFB012218488DF8FE
:1055480000206946FBF716FC144B1A78012A08D18B
:105558001A7A012A05D11A7C012A02D11B7E012B55
:1055680019D001240D48FBF7D3FB224669460B48A6
:105578008DF80040FBF7FEFB224669460948FBF719
:10558800F9FB224669460848FBF7F4FB0448224623
:105598006946FBF7EFFB02B010BD00BF00F0000842
:1055A80018F0000808F0000810F0000810B50649C7
:1055B80000231C2202FB03F4D8B2645A1CB1013345
:1055C800202BF7D1FF2010BD780D002030B5084CF6
:1055D80000231C2101FB03F5DAB22D5B854200D1C3
:1055E80018B90133202BF5D1FF22104630BD00BF7A
:1055F800780D002002460D49F0B50020D61D541E36
:105608000D46002314F801CF15F8017BBC4504BFF3
:105618000133DBB2B442F5D1082B06D0431CD8B213
:10562800202801F11C01EAD1FF20F0BD7E0D0020E9
:1056380001440023884201D11846704710F8012B15
:105648005340F7E70E4B1A7E597E83F817219A7E4E
:1056580002EB0122A3F81821597F9A7F02EB01225D
:10566800A3F81C21D97E1A7F02EB0122A3F81A2184
:1056780093F8202083F81E21DA7F83F81F217047D2
:10568800980A0020114B124AD86A196BF0B5C3B2B8
:10569800C0F30727C0F30746000E5FFA81FCD372F8
:1056A8000344C1F30725C1F307446344090E0B44BF
:1056B8003B4433442B44234417735673907382F846
:1056C8000FC0157454749174D380F0BD000002406B
:1056D800980A002008B5044B7B225A72FFF7D2FFC4
:1056E800BDE80840FFF732BC980A00201FB51A48E9
:1056F80090F81E31A22B04D0B02B1ED005B05DF857
:1057080004FB164B5B691A6892788DF80C201A68AE
:1057180092798DF80D201A68927A8DF80E201B6800
:105728009B7B8DF80F3000230093B0F81C010423F5
:1057380003AAA021FFF734FAE0E7094A002332F868
:10574800230099B28842D9D101331E2BF7D1054BDA
:1057580001221A70D2E700BF980A00202413002003
:10576800EE090020A811002010B40C490C4C887BCD
:10577800CB7B627803EB0023012000EB42000A2177
:1057880001329BB26270B3FBF0F35DF8044BB3FBDC
:10579800F1F001FB1030FBF7B5BA00BF980A002002
:1057A800A811002013B504460A200191FBF7AAFAB4
:1057B800044B01999B6A2046984702B0BDE8104007
:1057C800FCF716BE0478010830B5254D2B7885B056
:1057D800002B42D1B5F81A31002B3ED1214B1B6862
:1057E800002B3AD1204A05F12203082413F8010BB3
:1057F80012F8011B884230D1013C14F0FF04F5D1A6
:1058080001231A488DF80830FBF782FA08220DEBBD
:1058180002011648FBF7AEFA08220DEB0201144804
:10582800FBF7A8FA95F82A3012480822022B0DEB4C
:10583800020194BF8DF808308DF80840FBF79AFAFA
:10584800012443238DF808300094234602AA5221EC
:105858000020FFF7A5F9084B1C7005B030BD00BF4C
:10586800980A0020B41100202100002000F0000850
:1058780008F0000828F00008A4110020F0B4144A29
:10588800144C92F8211064230829636014D192F80B
:105898002230FF2B10D192F823700F4D07230026DA
:1058A80055F8040B90F80CC0013BBC4504BF467387
:1058B800867313F0FF03F3D1528C08484DF6CC538E
:1058C8009A4204BF01232372F0BCFEF735BC00BF27
:1058D800980A0020A811002024130020BA0A0020EA
:1058E80007B50B4601210246009100205421FFF71D
:1058F80057F903B05DF804FB1FB50E4B9B79012BDC
:1059080014D000238DF80C308DF80E3066230A4829
:105918008DF80F3001237B2200938DF80D20B0F80D
:105928001A01042303AA4121FFF73AF905B05DF8EB
:1059380004FB00BF780A0020980A002038B50F4BF6
:105948009B79012B19D00E4A937A022B15D10D4B56
:10595800B2F81A210C4DA3F80C21012183F80A1181
:10596800072455F8043B5968187B09880222013C32
:1059780000F07CFB14F0FF04F3D138BD780A002056
:10598800980A0020F01100202413002070B5264B3F
:105998009B79012B8AB033D0244B9B7A022B2FD1D1
:1059A800234E0721002356F8042B547B55684CB32B
:1059B8006C880AA800EB8300240A00F81C4C546881
:1059C800648800F81B4C5468E488240A00F81A4CD0
:1059D8005468E48800F8194C0133DBB2507B9073AB
:1059E8004A1E12F0FF01DED10122124800929B00EC
:1059F800B0F80C0103F0FC0303AA4321FFF7D0F829
:105A08000AB070BDE8880028E8D06D880AA800EBC5
:105A180083002D0A00F81C5C55686D8800F81B5C33
:105A280000F81A4CD6E700BF780A0020980A002030
:105A380024130020F01100201FB50C4B9B695B68F4
:105A48005B894FF6FF7293420CD01A0A8DF80D301D
:105A580001238DF80C20009303AA0223A82100201B
:105A6800FFF79EF805B05DF804FB00BF2413002083
:105A7800F0B4104A0D78537B147B03EB04240734ED
:105A8800B5EBD40F14D10C4D072455F8046B377BB4
:105A9800874209D1907AD47A04EB00244A1C304614
:105AA800A1B2F0BC00F0D2BB013C14F0FF04ECD171
:105AB800F0BC7047F011002024130020F0B4104A05
:105AC8000D78537B147B03EB0424B5EB440F14D1FE
